{
    "txid": "36fd451e2bfc8597f03275e0306a5597fb837b1b886860b9019a070e60f1f1e4",
    "hash": "da32c2d5da2d927e65f52f1f1a0c3c792e87832a77c4d1d893e942700f9e45ec",
    "features": 1,
    "size": 258,
    "locktime": 0,
    "vin": [
        {
            "txid": "4d49a71ec9da436f71ec4ee231d04f292a29cd316f598bb7068feccabdc59485",
            "vout": 0,
            "scriptSig": {
                "asm": "30440220131432090a6af42da3e8335ff110831b41a44f4e9d18d88f5d50278380696c7202200fc2e48938f323ad13625890c0ea926c8a189c08b8efc38376b20c8a2188e96e[ALL] 0479be667ef9dcbbac55a06295ce870b07029bfcdb2dce28d959f2815b16f81798483ada7726a3c4655da4fbfc0e1108a8fd17b448a68554199c47d08ffb10d4b8",
                "hex": "4730440220131432090a6af42da3e8335ff110831b41a44f4e9d18d88f5d50278380696c7202200fc2e48938f323ad13625890c0ea926c8a189c08b8efc38376b20c8a2188e96e01410479be667ef9dcbbac55a06295ce870b07029bfcdb2dce28d959f2815b16f81798483ada7726a3c4655da4fbfc0e1108a8fd17b448a68554199c47d08ffb10d4b8"
            },
            "sequence": 4294967295
        }
    ],
    "vout": [
        {
            "token": "c1d206ea613cebbfbfd230ec8b9d13f66d75a128ffa630d07c64d81236e24d6253",
            "value": 100000000,
            "n": 0,
            "scriptPubKey": {
                "asm": "c1d206ea613cebbfbfd230ec8b9d13f66d75a128ffa630d07c64d81236e24d6253 OP_COLOR OP_DUP OP_HASH160 19d180d50f31b89b9757f4750a66e4ba12e3b525 OP_EQUALVERIFY OP_CHECKSIG",
                "hex": "21c1d206ea613cebbfbfd230ec8b9d13f66d75a128ffa630d07c64d81236e24d6253bc76a91419d180d50f31b89b9757f4750a66e4ba12e3b52588ac",
                "reqSigs": 1,
                "type": "coloredpubkeyhash",
                "addresses": [
                    "vmXejSsuy5KtpXhxKit3WicRUYig6UCb6Qmxf5RJuC37CuTS8W3NAMfet87iFEjC3XGq1Pucu6Hgn7"
                ]
            }
        }
    ],
    "hex": "01000000018594c5bdcaec8f06b78b596f31cd292a294fd031e24eec716f43dac91ea7494d000000008a4730440220131432090a6af42da3e8335ff110831b41a44f4e9d18d88f5d50278380696c7202200fc2e48938f323ad13625890c0ea926c8a189c08b8efc38376b20c8a2188e96e01410479be667ef9dcbbac55a06295ce870b07029bfcdb2dce28d959f2815b16f81798483ada7726a3c4655da4fbfc0e1108a8fd17b448a68554199c47d08ffb10d4b8ffffffff0100e1f505000000003c21c1d206ea613cebbfbfd230ec8b9d13f66d75a128ffa630d07c64d81236e24d6253bc76a91419d180d50f31b89b9757f4750a66e4ba12e3b52588ac00000000"
}
