{
    "txid": "c402b394a250fa23854543a5dc0b202ae91ac480bd4f1b0a71be1befffa18278",
    "hash": "1bb1185d25427036a3d2e8953b6e23d94e630745e45321ffa28817dc0e32c822",
    "features": 1,
    "size": 217,
    "vsize": 217,
    "weight": 868,
    "locktime": 0,
    "vin": [
        {
            "txid": "4d49a71ec9da436f71ec4ee231d04f292a29cd316f598bb7068feccabdc59485",
            "vout": 0,
            "scriptSig": {
                "asm": "daedda7c6b086be2d270559cff6b1a51212fcbeb2a1dc7405c992eac3593f95a165ef628ca317fa092b6c5c08c43bd06b8ff7847b54fb630a054b4931877b408[ALL] 0479be667ef9dcbbac55a06295ce870b07029bfcdb2dce28d959f2815b16f81798483ada7726a3c4655da4fbfc0e1108a8fd17b448a68554199c47d08ffb10d4b8",
                "hex": "41daedda7c6b086be2d270559cff6b1a51212fcbeb2a1dc7405c992eac3593f95a165ef628ca317fa092b6c5c08c43bd06b8ff7847b54fb630a054b4931877b40801410479be667ef9dcbbac55a06295ce870b07029bfcdb2dce28d959f2815b16f81798483ada7726a3c4655da4fbfc0e1108a8fd17b448a68554199c47d08ffb10d4b8"
            },
            "sequence": 4294967295
        }
    ],
    "vout": [
        {
            "value": 0.00100000,
            "n": 0,
            "scriptPubKey": {
                "asm": "OP_DUP OP_HASH160 5834479edbbe0539b31ffd3a8f8ebadc2165ed01 OP_EQUALVERIFY OP_CHECKSIG",
                "hex": "76a9145834479edbbe0539b31ffd3a8f8ebadc2165ed0188ac",
                "reqSigs": 1,
                "type": "pubkeyhash",
                "addresses": [
                    "193P6LtvS4nCnkDvM9uXn1gsSRqh4aDAz7"
                ]
            }
        }
    ],
    "hex": "01000000018594c5bdcaec8f06b78b596f31cd292a294fd031e24eec716f43dac91ea7494d000000008441daedda7c6b086be2d270559cff6b1a51212fcbeb2a1dc7405c992eac3593f95a165ef628ca317fa092b6c5c08c43bd06b8ff7847b54fb630a054b4931877b40801410479be667ef9dcbbac55a06295ce870b07029bfcdb2dce28d959f2815b16f81798483ada7726a3c4655da4fbfc0e1108a8fd17b448a68554199c47d08ffb10d4b8ffffffff01a0860100000000001976a9145834479edbbe0539b31ffd3a8f8ebadc2165ed0188ac00000000"
}
